{
  "_format": "hh-sol-artifact-1",
  "contractName": "ShadowCardsMarketplace",
  "sourceName": "contracts/ShadowCardsMarketplace.sol",
  "abi": [
    {
      "inputs": [
        {
          "internalType": "address",
          "name": "_settlementContract",
          "type": "address"
        },
        {
          "internalType": "address",
          "name": "_paymentToken",
          "type": "address"
        }
      ],
      "stateMutability": "nonpayable",
      "type": "constructor"
    },
    {
      "inputs": [],
      "name": "InvalidAddress",
      "type": "error"
    },
    {
      "inputs": [],
      "name": "InvalidListing",
      "type": "error"
    },
    {
      "inputs": [],
      "name": "NotOwner",
      "type": "error"
    },
    {
      "inputs": [],
      "name": "OfferDoesNotExist",
      "type": "error"
    },
    {
      "anonymous": false,
      "inputs": [
        {
          "indexed": true,
          "internalType": "address",
          "name": "nftContract",
          "type": "address"
        },
        {
          "indexed": true,
          "internalType": "uint256",
          "name": "tokenId",
          "type": "uint256"
        }
      ],
      "name": "CardDelisted",
      "type": "event"
    },
    {
      "anonymous": false,
      "inputs": [
        {
          "indexed": true,
          "internalType": "address",
          "name": "nftContract",
          "type": "address"
        },
        {
          "indexed": true,
          "internalType": "uint256",
          "name": "tokenId",
          "type": "uint256"
        },
        {
          "indexed": true,
          "internalType": "address",
          "name": "seller",
          "type": "address"
        },
        {
          "indexed": false,
          "internalType": "bytes32",
          "name": "encryptedPriceHandle",
          "type": "bytes32"
        }
      ],
      "name": "CardListed",
      "type": "event"
    },
    {
      "anonymous": false,
      "inputs": [
        {
          "indexed": true,
          "internalType": "address",
          "name": "nftContract",
          "type": "address"
        },
        {
          "indexed": true,
          "internalType": "uint256",
          "name": "tokenId",
          "type": "uint256"
        },
        {
          "indexed": true,
          "internalType": "address",
          "name": "buyer",
          "type": "address"
        }
      ],
      "name": "OfferAccepted",
      "type": "event"
    },
    {
      "anonymous": false,
      "inputs": [
        {
          "indexed": true,
          "internalType": "address",
          "name": "nftContract",
          "type": "address"
        },
        {
          "indexed": true,
          "internalType": "uint256",
          "name": "tokenId",
          "type": "uint256"
        },
        {
          "indexed": true,
          "internalType": "address",
          "name": "buyer",
          "type": "address"
        },
        {
          "indexed": false,
          "internalType": "address",
          "name": "seller",
          "type": "address"
        },
        {
          "indexed": false,
          "internalType": "bytes32",
          "name": "encryptedAmountHandle",
          "type": "bytes32"
        }
      ],
      "name": "OfferSubmitted",
      "type": "event"
    },
    {
      "inputs": [
        {
          "internalType": "address",
          "name": "nftContract",
          "type": "address"
        },
        {
          "internalType": "uint256",
          "name": "tokenId",
          "type": "uint256"
        },
        {
          "internalType": "address",
          "name": "buyer",
          "type": "address"
        },
        {
          "internalType": "bytes",
          "name": "proof",
          "type": "bytes"
        }
      ],
      "name": "acceptOffer",
      "outputs": [],
      "stateMutability": "nonpayable",
      "type": "function"
    },
    {
      "inputs": [
        {
          "internalType": "address",
          "name": "nftContract",
          "type": "address"
        },
        {
          "internalType": "uint256",
          "name": "tokenId",
          "type": "uint256"
        }
      ],
      "name": "delistCard",
      "outputs": [],
      "stateMutability": "nonpayable",
      "type": "function"
    },
    {
      "inputs": [
        {
          "internalType": "address",
          "name": "nftContract",
          "type": "address"
        },
        {
          "internalType": "uint256",
          "name": "tokenId",
          "type": "uint256"
        },
        {
          "internalType": "bytes32",
          "name": "encryptedPriceHandle",
          "type": "bytes32"
        }
      ],
      "name": "listCard",
      "outputs": [],
      "stateMutability": "nonpayable",
      "type": "function"
    },
    {
      "inputs": [
        {
          "internalType": "address",
          "name": "",
          "type": "address"
        },
        {
          "internalType": "uint256",
          "name": "",
          "type": "uint256"
        }
      ],
      "name": "listings",
      "outputs": [
        {
          "internalType": "uint256",
          "name": "tokenId",
          "type": "uint256"
        },
        {
          "internalType": "address",
          "name": "seller",
          "type": "address"
        },
        {
          "internalType": "enum ShadowCardsMarketplace.ListingStatus",
          "name": "status",
          "type": "uint8"
        },
        {
          "internalType": "bytes32",
          "name": "encryptedPriceHandle",
          "type": "bytes32"
        },
        {
          "internalType": "uint64",
          "name": "createdAt",
          "type": "uint64"
        }
      ],
      "stateMutability": "view",
      "type": "function"
    },
    {
      "inputs": [
        {
          "internalType": "address",
          "name": "",
          "type": "address"
        },
        {
          "internalType": "uint256",
          "name": "",
          "type": "uint256"
        },
        {
          "internalType": "address",
          "name": "",
          "type": "address"
        }
      ],
      "name": "offers",
      "outputs": [
        {
          "internalType": "uint256",
          "name": "tokenId",
          "type": "uint256"
        },
        {
          "internalType": "address",
          "name": "buyer",
          "type": "address"
        },
        {
          "internalType": "bytes32",
          "name": "encryptedAmountHandle",
          "type": "bytes32"
        },
        {
          "internalType": "uint64",
          "name": "submittedAt",
          "type": "uint64"
        },
        {
          "internalType": "bool",
          "name": "withdrawn",
          "type": "bool"
        }
      ],
      "stateMutability": "view",
      "type": "function"
    },
    {
      "inputs": [],
      "name": "paymentToken",
      "outputs": [
        {
          "internalType": "address",
          "name": "",
          "type": "address"
        }
      ],
      "stateMutability": "view",
      "type": "function"
    },
    {
      "inputs": [],
      "name": "settlementContract",
      "outputs": [
        {
          "internalType": "contract ConfidentialSettlement",
          "name": "",
          "type": "address"
        }
      ],
      "stateMutability": "view",
      "type": "function"
    },
    {
      "inputs": [
        {
          "internalType": "address",
          "name": "nftContract",
          "type": "address"
        },
        {
          "internalType": "uint256",
          "name": "tokenId",
          "type": "uint256"
        },
        {
          "internalType": "bytes32",
          "name": "encryptedAmountHandle",
          "type": "bytes32"
        }
      ],
      "name": "submitOffer",
      "outputs": [],
      "stateMutability": "nonpayable",
      "type": "function"
    }
  ],
  "bytecode": "0x60c060405234801561000f575f80fd5b50604051610c2f380380610c2f83398101604081905261002e9161009b565b6001600160a01b038216158061004b57506001600160a01b038116155b156100695760405163e6c4247b60e01b815260040160405180910390fd5b6001600160a01b039182166080521660a0526100cc565b80516001600160a01b0381168114610096575f80fd5b919050565b5f80604083850312156100ac575f80fd5b6100b583610080565b91506100c360208401610080565b90509250929050565b60805160a051610b346100fb5f395f8181610117015261081401525f818161022f01526107e30152610b345ff3fe608060405234801561000f575f80fd5b5060043610610084575f3560e01c8063aa2c01b011610058578063aa2c01b014610164578063c31860d514610177578063d3f494cc1461018a578063ea42418b1461022a575f80fd5b806207df301461008857806320f6d125146100fd5780633013ce291461011257806352828ed414610151575b5f80fd5b6100e36100963660046108d2565b5f602081815292815260408082209093529081522080546001820154600283015460039093015491926001600160a01b03821692600160a01b90920460ff169167ffffffffffffffff1685565b6040516100f4959493929190610910565b60405180910390f35b61011061010b366004610968565b610251565b005b6101397f000000000000000000000000000000000000000000000000000000000000000081565b6040516001600160a01b0390911681526020016100f4565b61011061015f3660046108d2565b6103fc565b610110610172366004610968565b6104a1565b61011061018536600461099a565b61069c565b6101ee610198366004610a31565b600160208181525f948552604080862082529385528385209052908352912080549181015460028201546003909201546001600160a01b03909116919067ffffffffffffffff811690600160401b900460ff1685565b604080519586526001600160a01b0390941660208601529284019190915267ffffffffffffffff1660608301521515608082015260a0016100f4565b6101397f000000000000000000000000000000000000000000000000000000000000000081565b6040516331a9108f60e11b81526004810183905233906001600160a01b03851690636352211e90602401602060405180830381865afa158015610296573d5f803e3d5ffd5b505050506040513d601f19601f820116820180604052508101906102ba9190610a70565b6001600160a01b0316146102e1576040516330cd747160e01b815260040160405180910390fd5b6040805160a08101825283815233602082015290810160018152602080820184905267ffffffffffffffff42166040928301526001600160a01b038087165f90815280835283812087825283528390208451815591840151600183018054919092166001600160a01b03198216811783559385015192936001600160a81b031990911617600160a01b83600481111561037c5761037c6108fc565b0217905550606082015160028201556080909101516003909101805467ffffffffffffffff191667ffffffffffffffff909216919091179055604051818152339083906001600160a01b038616907fdc34fa82fe6fbb4adfec3f22d7b6ca10f9340cbd040e4b71fbd0fe79d25cf6bf9060200160405180910390a4505050565b6001600160a01b038281165f90815260208181526040808320858452909152902060010154163314610441576040516330cd747160e01b815260040160405180910390fd5b6001600160a01b0382165f81815260208181526040808320858452909152808220600101805460ff60a01b1916600160a21b179055518392917f348d12804e428dafbee2baa63978f4a02c184c540152faa154bdfa4a45ebcee591a35050565b6001600160a01b0383165f908152602081815260408083208584529091529020600180820154600160a01b900460ff1660048111156104e2576104e26108fc565b1461050057604051631ab4dc1760e31b815260040160405180910390fd5b6040518060a00160405280848152602001336001600160a01b031681526020018381526020014267ffffffffffffffff1681526020015f151581525060015f866001600160a01b03166001600160a01b031681526020019081526020015f205f8581526020019081526020015f205f336001600160a01b03166001600160a01b031681526020019081526020015f205f820151815f01556020820151816001015f6101000a8154816001600160a01b0302191690836001600160a01b03160217905550604082015181600201556060820151816003015f6101000a81548167ffffffffffffffff021916908367ffffffffffffffff16021790555060808201518160030160086101000a81548160ff021916908315150217905550905050336001600160a01b031683856001600160a01b03167fa1894c05a8c075efe56ae175be3a51a1424e52d7aa45ed70a9d4e4cc5e7cd8c4846001015f9054906101000a90046001600160a01b03168660405161068e9291906001600160a01b03929092168252602082015260400190565b60405180910390a450505050565b6001600160a01b038086165f81815260208181526040808320898452825280832093835260018083528184208a8552835281842089871685529092529091209082015491929091163314610703576040516330cd747160e01b815260040160405180910390fd5b600180830154600160a01b900460ff166004811115610724576107246108fc565b14158015610752575060026001830154600160a01b900460ff16600481111561074f5761074f6108fc565b14155b1561077057604051631ab4dc1760e31b815260040160405180910390fd5b60018101546001600160a01b0316158061079557506003810154600160401b900460ff165b156107b3576040516374dbff7960e01b815260040160405180910390fd5b60018201805460ff60a01b1916600360a01b1790556002810154604051622f129760e31b81526001600160a01b037f0000000000000000000000000000000000000000000000000000000000000000169163017894b891610844918b918b917f0000000000000000000000000000000000000000000000000000000000000000918c9133918d908d90600401610a92565b5f604051808303815f87803b15801561085b575f80fd5b505af115801561086d573d5f803e3d5ffd5b50505050846001600160a01b031686886001600160a01b03167f1911131efc06f8b35ef19454a244416c23f0cffd91e74ec4d1656a64ec363afe60405160405180910390a450505050505050565b6001600160a01b03811681146108cf575f80fd5b50565b5f80604083850312156108e3575f80fd5b82356108ee816108bb565b946020939093013593505050565b634e487b7160e01b5f52602160045260245ffd5b8581526001600160a01b038516602082015260a081016005851061094257634e487b7160e01b5f52602160045260245ffd5b84604083015283606083015267ffffffffffffffff831660808301529695505050505050565b5f805f6060848603121561097a575f80fd5b8335610985816108bb565b95602085013595506040909401359392505050565b5f805f805f608086880312156109ae575f80fd5b85356109b9816108bb565b94506020860135935060408601356109d0816108bb565b9250606086013567ffffffffffffffff808211156109ec575f80fd5b818801915088601f8301126109ff575f80fd5b813581811115610a0d575f80fd5b896020828501011115610a1e575f80fd5b9699959850939650602001949392505050565b5f805f60608486031215610a43575f80fd5b8335610a4e816108bb565b9250602084013591506040840135610a65816108bb565b809150509250925092565b5f60208284031215610a80575f80fd5b8151610a8b816108bb565b9392505050565b6001600160a01b03898116825260208201899052878116604083015286811660608301528516608082015260a0810184905260e060c0820181905281018290525f6101008385828501375f838501820152601f909301601f19169091019091019897505050505050505056fea2646970667358221220ece09171a030883d30dcc7e15b90d168bcb71e1d44ad80a8ca5e4325835d7f6964736f6c63430008180033",
  "linkReferences": {},
  "deployedLinkReferences": {}
}