{
  "_format": "hh-sol-artifact-1",
  "contractName": "ConfidentialSettlement",
  "sourceName": "contracts/ConfidentialSettlement.sol",
  "abi": [
    {
      "inputs": [],
      "stateMutability": "nonpayable",
      "type": "constructor"
    },
    {
      "inputs": [],
      "name": "ConfidentialPaymentFailed",
      "type": "error"
    },
    {
      "inputs": [],
      "name": "MarketplaceAlreadySet",
      "type": "error"
    },
    {
      "inputs": [
        {
          "internalType": "address",
          "name": "owner",
          "type": "address"
        }
      ],
      "name": "OwnableInvalidOwner",
      "type": "error"
    },
    {
      "inputs": [
        {
          "internalType": "address",
          "name": "account",
          "type": "address"
        }
      ],
      "name": "OwnableUnauthorizedAccount",
      "type": "error"
    },
    {
      "inputs": [],
      "name": "Unauthorized",
      "type": "error"
    },
    {
      "anonymous": false,
      "inputs": [
        {
          "indexed": true,
          "internalType": "address",
          "name": "previousOwner",
          "type": "address"
        },
        {
          "indexed": true,
          "internalType": "address",
          "name": "newOwner",
          "type": "address"
        }
      ],
      "name": "OwnershipTransferred",
      "type": "event"
    },
    {
      "anonymous": false,
      "inputs": [
        {
          "indexed": true,
          "internalType": "address",
          "name": "nftContract",
          "type": "address"
        },
        {
          "indexed": true,
          "internalType": "uint256",
          "name": "tokenId",
          "type": "uint256"
        },
        {
          "indexed": true,
          "internalType": "address",
          "name": "buyer",
          "type": "address"
        },
        {
          "indexed": false,
          "internalType": "address",
          "name": "seller",
          "type": "address"
        }
      ],
      "name": "TradeSettled",
      "type": "event"
    },
    {
      "inputs": [
        {
          "internalType": "address",
          "name": "nftContract",
          "type": "address"
        },
        {
          "internalType": "uint256",
          "name": "tokenId",
          "type": "uint256"
        },
        {
          "internalType": "address",
          "name": "paymentToken",
          "type": "address"
        },
        {
          "internalType": "address",
          "name": "buyer",
          "type": "address"
        },
        {
          "internalType": "address",
          "name": "seller",
          "type": "address"
        },
        {
          "internalType": "bytes32",
          "name": "encryptedAmountHandle",
          "type": "bytes32"
        },
        {
          "internalType": "bytes",
          "name": "proof",
          "type": "bytes"
        }
      ],
      "name": "executeSettlement",
      "outputs": [],
      "stateMutability": "nonpayable",
      "type": "function"
    },
    {
      "inputs": [],
      "name": "marketplace",
      "outputs": [
        {
          "internalType": "address",
          "name": "",
          "type": "address"
        }
      ],
      "stateMutability": "view",
      "type": "function"
    },
    {
      "inputs": [],
      "name": "owner",
      "outputs": [
        {
          "internalType": "address",
          "name": "",
          "type": "address"
        }
      ],
      "stateMutability": "view",
      "type": "function"
    },
    {
      "inputs": [],
      "name": "renounceOwnership",
      "outputs": [],
      "stateMutability": "nonpayable",
      "type": "function"
    },
    {
      "inputs": [
        {
          "internalType": "address",
          "name": "_marketplace",
          "type": "address"
        }
      ],
      "name": "setMarketplace",
      "outputs": [],
      "stateMutability": "nonpayable",
      "type": "function"
    },
    {
      "inputs": [
        {
          "internalType": "address",
          "name": "newOwner",
          "type": "address"
        }
      ],
      "name": "transferOwnership",
      "outputs": [],
      "stateMutability": "nonpayable",
      "type": "function"
    }
  ],
  "bytecode": "0x608060405234801561000f575f80fd5b50338061003557604051631e4fbdf760e01b81525f600482015260240160405180910390fd5b61003e81610044565b50610093565b5f80546001600160a01b038381166001600160a01b0319831681178455604051919092169283917f8be0079c531659141344cd1fd0a4f28419497f9722a3daafe3b4186f6b6457e09190a35050565b61051d806100a05f395ff3fe608060405234801561000f575f80fd5b5060043610610060575f3560e01c8063017894b814610064578063715018a61461007957806373ad6c2d146100815780638da5cb5b14610094578063abc8c7af146100bc578063f2fde38b146100cf575b5f80fd5b610077610072366004610397565b6100e2565b005b610077610258565b61007761008f366004610456565b61026b565b5f546001600160a01b03165b6040516001600160a01b03909116815260200160405180910390f35b6001546100a0906001600160a01b031681565b6100776100dd366004610456565b6102bf565b6001546001600160a01b0316331461010c576040516282b42960e81b815260040160405180910390fd5b60405163e064b9bb60e01b81525f906001600160a01b0388169063e064b9bb906101429089908990899089908990600401610476565b6020604051808303815f875af115801561015e573d5f803e3d5ffd5b505050506040513d601f19601f8201168201806040525081019061018291906104c8565b9050806101a257604051630c5f40ef60e41b815260040160405180910390fd5b6040516323b872dd60e01b81526001600160a01b0386811660048301528781166024830152604482018a90528a16906323b872dd906064015f604051808303815f87803b1580156101f1575f80fd5b505af1158015610203573d5f803e3d5ffd5b50506040516001600160a01b038881168252808a1693508b92508c16907fbe2cd0b5e696fb05809c8f15c34c6b43eaa567b9c10ca8ed74fe9d33d37387a59060200160405180910390a4505050505050505050565b610260610301565b6102695f61032d565b565b610273610301565b6001546001600160a01b03161561029d576040516385a30e9560e01b815260040160405180910390fd5b600180546001600160a01b0319166001600160a01b0392909216919091179055565b6102c7610301565b6001600160a01b0381166102f557604051631e4fbdf760e01b81525f60048201526024015b60405180910390fd5b6102fe8161032d565b50565b5f546001600160a01b031633146102695760405163118cdaa760e01b81523360048201526024016102ec565b5f80546001600160a01b038381166001600160a01b0319831681178455604051919092169283917f8be0079c531659141344cd1fd0a4f28419497f9722a3daafe3b4186f6b6457e09190a35050565b80356001600160a01b0381168114610392575f80fd5b919050565b5f805f805f805f8060e0898b0312156103ae575f80fd5b6103b78961037c565b9750602089013596506103cc60408a0161037c565b95506103da60608a0161037c565b94506103e860808a0161037c565b935060a0890135925060c089013567ffffffffffffffff8082111561040b575f80fd5b818b0191508b601f83011261041e575f80fd5b81358181111561042c575f80fd5b8c602082850101111561043d575f80fd5b6020830194508093505050509295985092959890939650565b5f60208284031215610466575f80fd5b61046f8261037c565b9392505050565b6001600160a01b038681168252851660208201526040810184905260806060820181905281018290525f828460a08401375f60a0848401015260a0601f19601f85011683010190509695505050505050565b5f602082840312156104d8575f80fd5b8151801515811461046f575f80fdfea26469706673582212206dd29eb87d671cc342dbf363b4674178c9fb11dbca992cdf4782ecbb9490132f64736f6c63430008180033",
  "linkReferences": {},
  "deployedLinkReferences": {}
}