{
  "_format": "hh-sol-artifact-1",
  "contractName": "NasToken",
  "sourceName": "contracts/NasToken.sol",
  "abi": [
    {
      "inputs": [],
      "stateMutability": "nonpayable",
      "type": "constructor"
    },
    {
      "inputs": [
        {
          "internalType": "address",
          "name": "spender",
          "type": "address"
        },
        {
          "internalType": "uint256",
          "name": "allowance",
          "type": "uint256"
        },
        {
          "internalType": "uint256",
          "name": "needed",
          "type": "uint256"
        }
      ],
      "name": "ERC20InsufficientAllowance",
      "type": "error"
    },
    {
      "inputs": [
        {
          "internalType": "address",
          "name": "sender",
          "type": "address"
        },
        {
          "internalType": "uint256",
          "name": "balance",
          "type": "uint256"
        },
        {
          "internalType": "uint256",
          "name": "needed",
          "type": "uint256"
        }
      ],
      "name": "ERC20InsufficientBalance",
      "type": "error"
    },
    {
      "inputs": [
        {
          "internalType": "address",
          "name": "approver",
          "type": "address"
        }
      ],
      "name": "ERC20InvalidApprover",
      "type": "error"
    },
    {
      "inputs": [
        {
          "internalType": "address",
          "name": "receiver",
          "type": "address"
        }
      ],
      "name": "ERC20InvalidReceiver",
      "type": "error"
    },
    {
      "inputs": [
        {
          "internalType": "address",
          "name": "sender",
          "type": "address"
        }
      ],
      "name": "ERC20InvalidSender",
      "type": "error"
    },
    {
      "inputs": [
        {
          "internalType": "address",
          "name": "spender",
          "type": "address"
        }
      ],
      "name": "ERC20InvalidSpender",
      "type": "error"
    },
    {
      "inputs": [
        {
          "internalType": "address",
          "name": "owner",
          "type": "address"
        }
      ],
      "name": "OwnableInvalidOwner",
      "type": "error"
    },
    {
      "inputs": [
        {
          "internalType": "address",
          "name": "account",
          "type": "address"
        }
      ],
      "name": "OwnableUnauthorizedAccount",
      "type": "error"
    },
    {
      "anonymous": false,
      "inputs": [
        {
          "indexed": true,
          "internalType": "address",
          "name": "owner",
          "type": "address"
        },
        {
          "indexed": true,
          "internalType": "address",
          "name": "spender",
          "type": "address"
        },
        {
          "indexed": false,
          "internalType": "uint256",
          "name": "value",
          "type": "uint256"
        }
      ],
      "name": "Approval",
      "type": "event"
    },
    {
      "anonymous": false,
      "inputs": [
        {
          "indexed": true,
          "internalType": "address",
          "name": "previousOwner",
          "type": "address"
        },
        {
          "indexed": true,
          "internalType": "address",
          "name": "newOwner",
          "type": "address"
        }
      ],
      "name": "OwnershipTransferred",
      "type": "event"
    },
    {
      "anonymous": false,
      "inputs": [
        {
          "indexed": true,
          "internalType": "address",
          "name": "from",
          "type": "address"
        },
        {
          "indexed": true,
          "internalType": "address",
          "name": "to",
          "type": "address"
        },
        {
          "indexed": false,
          "internalType": "uint256",
          "name": "value",
          "type": "uint256"
        }
      ],
      "name": "Transfer",
      "type": "event"
    },
    {
      "inputs": [
        {
          "internalType": "address",
          "name": "owner",
          "type": "address"
        },
        {
          "internalType": "address",
          "name": "spender",
          "type": "address"
        }
      ],
      "name": "allowance",
      "outputs": [
        {
          "internalType": "uint256",
          "name": "",
          "type": "uint256"
        }
      ],
      "stateMutability": "view",
      "type": "function"
    },
    {
      "inputs": [
        {
          "internalType": "address",
          "name": "spender",
          "type": "address"
        },
        {
          "internalType": "uint256",
          "name": "value",
          "type": "uint256"
        }
      ],
      "name": "approve",
      "outputs": [
        {
          "internalType": "bool",
          "name": "",
          "type": "bool"
        }
      ],
      "stateMutability": "nonpayable",
      "type": "function"
    },
    {
      "inputs": [
        {
          "internalType": "address",
          "name": "account",
          "type": "address"
        }
      ],
      "name": "balanceOf",
      "outputs": [
        {
          "internalType": "uint256",
          "name": "",
          "type": "uint256"
        }
      ],
      "stateMutability": "view",
      "type": "function"
    },
    {
      "inputs": [
        {
          "internalType": "address",
          "name": "from",
          "type": "address"
        },
        {
          "internalType": "address",
          "name": "to",
          "type": "address"
        },
        {
          "internalType": "bytes32",
          "name": "",
          "type": "bytes32"
        },
        {
          "internalType": "bytes",
          "name": "",
          "type": "bytes"
        }
      ],
      "name": "confidentialTransferFrom",
      "outputs": [
        {
          "internalType": "bool",
          "name": "",
          "type": "bool"
        }
      ],
      "stateMutability": "nonpayable",
      "type": "function"
    },
    {
      "inputs": [],
      "name": "decimals",
      "outputs": [
        {
          "internalType": "uint8",
          "name": "",
          "type": "uint8"
        }
      ],
      "stateMutability": "view",
      "type": "function"
    },
    {
      "inputs": [
        {
          "internalType": "address",
          "name": "to",
          "type": "address"
        },
        {
          "internalType": "uint256",
          "name": "amount",
          "type": "uint256"
        }
      ],
      "name": "mint",
      "outputs": [],
      "stateMutability": "nonpayable",
      "type": "function"
    },
    {
      "inputs": [],
      "name": "name",
      "outputs": [
        {
          "internalType": "string",
          "name": "",
          "type": "string"
        }
      ],
      "stateMutability": "view",
      "type": "function"
    },
    {
      "inputs": [],
      "name": "owner",
      "outputs": [
        {
          "internalType": "address",
          "name": "",
          "type": "address"
        }
      ],
      "stateMutability": "view",
      "type": "function"
    },
    {
      "inputs": [],
      "name": "renounceOwnership",
      "outputs": [],
      "stateMutability": "nonpayable",
      "type": "function"
    },
    {
      "inputs": [],
      "name": "symbol",
      "outputs": [
        {
          "internalType": "string",
          "name": "",
          "type": "string"
        }
      ],
      "stateMutability": "view",
      "type": "function"
    },
    {
      "inputs": [],
      "name": "totalSupply",
      "outputs": [
        {
          "internalType": "uint256",
          "name": "",
          "type": "uint256"
        }
      ],
      "stateMutability": "view",
      "type": "function"
    },
    {
      "inputs": [
        {
          "internalType": "address",
          "name": "to",
          "type": "address"
        },
        {
          "internalType": "uint256",
          "name": "value",
          "type": "uint256"
        }
      ],
      "name": "transfer",
      "outputs": [
        {
          "internalType": "bool",
          "name": "",
          "type": "bool"
        }
      ],
      "stateMutability": "nonpayable",
      "type": "function"
    },
    {
      "inputs": [
        {
          "internalType": "address",
          "name": "from",
          "type": "address"
        },
        {
          "internalType": "address",
          "name": "to",
          "type": "address"
        },
        {
          "internalType": "uint256",
          "name": "value",
          "type": "uint256"
        }
      ],
      "name": "transferFrom",
      "outputs": [
        {
          "internalType": "bool",
          "name": "",
          "type": "bool"
        }
      ],
      "stateMutability": "nonpayable",
      "type": "function"
    },
    {
      "inputs": [
        {
          "internalType": "address",
          "name": "newOwner",
          "type": "address"
        }
      ],
      "name": "transferOwnership",
      "outputs": [],
      "stateMutability": "nonpayable",
      "type": "function"
    }
  ],
  "bytecode": "0x608060405234801562000010575f80fd5b50336040518060400160405280600e81526020016d2730b9b1b7b9ba37902a37b5b2b760911b815250604051806040016040528060038152602001624e415360e81b81525081600390816200006691906200033b565b5060046200007582826200033b565b5050506001600160a01b038116620000a757604051631e4fbdf760e01b81525f60048201526024015b60405180910390fd5b620000b281620000e1565b50620000db33620000c66012600a62000516565b620000d590620f42406200052d565b62000132565b6200055d565b600580546001600160a01b038381166001600160a01b0319831681179093556040519116919082907f8be0079c531659141344cd1fd0a4f28419497f9722a3daafe3b4186f6b6457e0905f90a35050565b6001600160a01b0382166200015d5760405163ec442f0560e01b81525f60048201526024016200009e565b6200016a5f83836200016e565b5050565b6001600160a01b0383166200019c578060025f82825462000190919062000547565b909155506200020e9050565b6001600160a01b0383165f9081526020819052604090205481811015620001f05760405163391434e360e21b81526001600160a01b038516600482015260248101829052604481018390526064016200009e565b6001600160a01b0384165f9081526020819052604090209082900390555b6001600160a01b0382166200022c576002805482900390556200024a565b6001600160a01b0382165f9081526020819052604090208054820190555b816001600160a01b0316836001600160a01b03167fddf252ad1be2c89b69c2b068fc378daa952ba7f163c4a11628f55a4df523b3ef836040516200029091815260200190565b60405180910390a3505050565b634e487b7160e01b5f52604160045260245ffd5b600181811c90821680620002c657607f821691505b602082108103620002e557634e487b7160e01b5f52602260045260245ffd5b50919050565b601f8211156200033657805f5260205f20601f840160051c81016020851015620003125750805b601f840160051c820191505b8181101562000333575f81556001016200031e565b50505b505050565b81516001600160401b038111156200035757620003576200029d565b6200036f81620003688454620002b1565b84620002eb565b602080601f831160018114620003a5575f84156200038d5750858301515b5f19600386901b1c1916600185901b178555620003ff565b5f85815260208120601f198616915b82811015620003d557888601518255948401946001909101908401620003b4565b5085821015620003f357878501515f19600388901b60f8161c191681555b505060018460011b0185555b505050505050565b634e487b7160e01b5f52601160045260245ffd5b600181815b808511156200045b57815f19048211156200043f576200043f62000407565b808516156200044d57918102915b93841c939080029062000420565b509250929050565b5f82620004735750600162000510565b816200048157505f62000510565b81600181146200049a5760028114620004a557620004c5565b600191505062000510565b60ff841115620004b957620004b962000407565b50506001821b62000510565b5060208310610133831016604e8410600b8410161715620004ea575081810a62000510565b620004f683836200041b565b805f19048211156200050c576200050c62000407565b0290505b92915050565b5f6200052660ff84168362000463565b9392505050565b808202811582820484141762000510576200051062000407565b8082018082111562000510576200051062000407565b610a98806200056b5f395ff3fe608060405234801561000f575f80fd5b50600436106100e5575f3560e01c8063715018a611610088578063a9059cbb11610063578063a9059cbb146101c6578063dd62ed3e146101d9578063e064b9bb14610211578063f2fde38b14610224575f80fd5b8063715018a61461019b5780638da5cb5b146101a357806395d89b41146101be575f80fd5b806323b872dd116100c357806323b872dd1461013c578063313ce5671461014f57806340c10f191461015e57806370a0823114610173575f80fd5b806306fdde03146100e9578063095ea7b31461010757806318160ddd1461012a575b5f80fd5b6100f1610237565b6040516100fe9190610752565b60405180910390f35b61011a6101153660046107b9565b6102c7565b60405190151581526020016100fe565b6002545b6040519081526020016100fe565b61011a61014a3660046107e1565b6102e0565b604051601281526020016100fe565b61017161016c3660046107b9565b610303565b005b61012e61018136600461081a565b6001600160a01b03165f9081526020819052604090205490565b610171610319565b6005546040516001600160a01b0390911681526020016100fe565b6100f161032c565b61011a6101d43660046107b9565b61033b565b61012e6101e736600461083a565b6001600160a01b039182165f90815260016020908152604080832093909416825291909152205490565b61011a61021f36600461086b565b610348565b61017161023236600461081a565b61037b565b606060038054610246906108fe565b80601f0160208091040260200160405190810160405280929190818152602001828054610272906108fe565b80156102bd5780601f10610294576101008083540402835291602001916102bd565b820191905f5260205f20905b8154815290600101906020018083116102a057829003601f168201915b5050505050905090565b5f336102d48185856103bd565b60019150505b92915050565b5f336102ed8582856103cf565b6102f885858561044b565b506001949350505050565b61030b6104a8565b61031582826104d5565b5050565b6103216104a8565b61032a5f610509565b565b606060048054610246906108fe565b5f336102d481858561044b565b5f806103566012600a610a2a565b61036190600a610a38565b905061036e87878361044b565b5060019695505050505050565b6103836104a8565b6001600160a01b0381166103b157604051631e4fbdf760e01b81525f60048201526024015b60405180910390fd5b6103ba81610509565b50565b6103ca838383600161055a565b505050565b6001600160a01b038381165f908152600160209081526040808320938616835292905220545f19811015610445578181101561043757604051637dc7a0d960e11b81526001600160a01b038416600482015260248101829052604481018390526064016103a8565b61044584848484035f61055a565b50505050565b6001600160a01b03831661047457604051634b637e8f60e11b81525f60048201526024016103a8565b6001600160a01b03821661049d5760405163ec442f0560e01b81525f60048201526024016103a8565b6103ca83838361062c565b6005546001600160a01b0316331461032a5760405163118cdaa760e01b81523360048201526024016103a8565b6001600160a01b0382166104fe5760405163ec442f0560e01b81525f60048201526024016103a8565b6103155f838361062c565b600580546001600160a01b038381166001600160a01b0319831681179093556040519116919082907f8be0079c531659141344cd1fd0a4f28419497f9722a3daafe3b4186f6b6457e0905f90a35050565b6001600160a01b0384166105835760405163e602df0560e01b81525f60048201526024016103a8565b6001600160a01b0383166105ac57604051634a1406b160e11b81525f60048201526024016103a8565b6001600160a01b038085165f908152600160209081526040808320938716835292905220829055801561044557826001600160a01b0316846001600160a01b03167f8c5be1e5ebec7d5bd14f71427d1e84f3dd0314c0f7b2291e5b200ac8c7c3b9258460405161061e91815260200190565b60405180910390a350505050565b6001600160a01b038316610656578060025f82825461064b9190610a4f565b909155506106c69050565b6001600160a01b0383165f90815260208190526040902054818110156106a85760405163391434e360e21b81526001600160a01b038516600482015260248101829052604481018390526064016103a8565b6001600160a01b0384165f9081526020819052604090209082900390555b6001600160a01b0382166106e257600280548290039055610700565b6001600160a01b0382165f9081526020819052604090208054820190555b816001600160a01b0316836001600160a01b03167fddf252ad1be2c89b69c2b068fc378daa952ba7f163c4a11628f55a4df523b3ef8360405161074591815260200190565b60405180910390a3505050565b5f602080835283518060208501525f5b8181101561077e57858101830151858201604001528201610762565b505f604082860101526040601f19601f8301168501019250505092915050565b80356001600160a01b03811681146107b4575f80fd5b919050565b5f80604083850312156107ca575f80fd5b6107d38361079e565b946020939093013593505050565b5f805f606084860312156107f3575f80fd5b6107fc8461079e565b925061080a6020850161079e565b9150604084013590509250925092565b5f6020828403121561082a575f80fd5b6108338261079e565b9392505050565b5f806040838503121561084b575f80fd5b6108548361079e565b91506108626020840161079e565b90509250929050565b5f805f805f6080868803121561087f575f80fd5b6108888661079e565b94506108966020870161079e565b935060408601359250606086013567ffffffffffffffff808211156108b9575f80fd5b818801915088601f8301126108cc575f80fd5b8135818111156108da575f80fd5b8960208285010111156108eb575f80fd5b9699959850939650602001949392505050565b600181811c9082168061091257607f821691505b60208210810361093057634e487b7160e01b5f52602260045260245ffd5b50919050565b634e487b7160e01b5f52601160045260245ffd5b600181815b8085111561098457815f190482111561096a5761096a610936565b8085161561097757918102915b93841c939080029061094f565b509250929050565b5f8261099a575060016102da565b816109a657505f6102da565b81600181146109bc57600281146109c6576109e2565b60019150506102da565b60ff8411156109d7576109d7610936565b50506001821b6102da565b5060208310610133831016604e8410600b8410161715610a05575081810a6102da565b610a0f838361094a565b805f1904821115610a2257610a22610936565b029392505050565b5f61083360ff84168361098c565b80820281158282048414176102da576102da610936565b808201808211156102da576102da61093656fea2646970667358221220765c72baf8e291ee94d7dfec0ff381c4be3c97d1f0a106eb44d66e9e06ab698e64736f6c63430008180033",
  "linkReferences": {},
  "deployedLinkReferences": {}
}