{
  "_format": "hh-sol-artifact-1",
  "contractName": "ShadowCard",
  "sourceName": "contracts/ShadowCard.sol",
  "abi": [
    {
      "inputs": [],
      "stateMutability": "nonpayable",
      "type": "constructor"
    },
    {
      "inputs": [],
      "name": "CardDoesNotExist",
      "type": "error"
    },
    {
      "inputs": [
        {
          "internalType": "address",
          "name": "sender",
          "type": "address"
        },
        {
          "internalType": "uint256",
          "name": "tokenId",
          "type": "uint256"
        },
        {
          "internalType": "address",
          "name": "owner",
          "type": "address"
        }
      ],
      "name": "ERC721IncorrectOwner",
      "type": "error"
    },
    {
      "inputs": [
        {
          "internalType": "address",
          "name": "operator",
          "type": "address"
        },
        {
          "internalType": "uint256",
          "name": "tokenId",
          "type": "uint256"
        }
      ],
      "name": "ERC721InsufficientApproval",
      "type": "error"
    },
    {
      "inputs": [
        {
          "internalType": "address",
          "name": "approver",
          "type": "address"
        }
      ],
      "name": "ERC721InvalidApprover",
      "type": "error"
    },
    {
      "inputs": [
        {
          "internalType": "address",
          "name": "operator",
          "type": "address"
        }
      ],
      "name": "ERC721InvalidOperator",
      "type": "error"
    },
    {
      "inputs": [
        {
          "internalType": "address",
          "name": "owner",
          "type": "address"
        }
      ],
      "name": "ERC721InvalidOwner",
      "type": "error"
    },
    {
      "inputs": [
        {
          "internalType": "address",
          "name": "receiver",
          "type": "address"
        }
      ],
      "name": "ERC721InvalidReceiver",
      "type": "error"
    },
    {
      "inputs": [
        {
          "internalType": "address",
          "name": "sender",
          "type": "address"
        }
      ],
      "name": "ERC721InvalidSender",
      "type": "error"
    },
    {
      "inputs": [
        {
          "internalType": "uint256",
          "name": "tokenId",
          "type": "uint256"
        }
      ],
      "name": "ERC721NonexistentToken",
      "type": "error"
    },
    {
      "inputs": [
        {
          "internalType": "address",
          "name": "owner",
          "type": "address"
        }
      ],
      "name": "OwnableInvalidOwner",
      "type": "error"
    },
    {
      "inputs": [
        {
          "internalType": "address",
          "name": "account",
          "type": "address"
        }
      ],
      "name": "OwnableUnauthorizedAccount",
      "type": "error"
    },
    {
      "anonymous": false,
      "inputs": [
        {
          "indexed": true,
          "internalType": "address",
          "name": "owner",
          "type": "address"
        },
        {
          "indexed": true,
          "internalType": "address",
          "name": "approved",
          "type": "address"
        },
        {
          "indexed": true,
          "internalType": "uint256",
          "name": "tokenId",
          "type": "uint256"
        }
      ],
      "name": "Approval",
      "type": "event"
    },
    {
      "anonymous": false,
      "inputs": [
        {
          "indexed": true,
          "internalType": "address",
          "name": "owner",
          "type": "address"
        },
        {
          "indexed": true,
          "internalType": "address",
          "name": "operator",
          "type": "address"
        },
        {
          "indexed": false,
          "internalType": "bool",
          "name": "approved",
          "type": "bool"
        }
      ],
      "name": "ApprovalForAll",
      "type": "event"
    },
    {
      "anonymous": false,
      "inputs": [
        {
          "indexed": true,
          "internalType": "uint256",
          "name": "tokenId",
          "type": "uint256"
        },
        {
          "indexed": true,
          "internalType": "address",
          "name": "mintedBy",
          "type": "address"
        },
        {
          "indexed": false,
          "internalType": "bytes32",
          "name": "contentHash",
          "type": "bytes32"
        }
      ],
      "name": "CardMinted",
      "type": "event"
    },
    {
      "anonymous": false,
      "inputs": [
        {
          "indexed": true,
          "internalType": "address",
          "name": "previousOwner",
          "type": "address"
        },
        {
          "indexed": true,
          "internalType": "address",
          "name": "newOwner",
          "type": "address"
        }
      ],
      "name": "OwnershipTransferred",
      "type": "event"
    },
    {
      "anonymous": false,
      "inputs": [
        {
          "indexed": true,
          "internalType": "address",
          "name": "from",
          "type": "address"
        },
        {
          "indexed": true,
          "internalType": "address",
          "name": "to",
          "type": "address"
        },
        {
          "indexed": true,
          "internalType": "uint256",
          "name": "tokenId",
          "type": "uint256"
        }
      ],
      "name": "Transfer",
      "type": "event"
    },
    {
      "inputs": [
        {
          "internalType": "address",
          "name": "to",
          "type": "address"
        },
        {
          "internalType": "uint256",
          "name": "tokenId",
          "type": "uint256"
        }
      ],
      "name": "approve",
      "outputs": [],
      "stateMutability": "nonpayable",
      "type": "function"
    },
    {
      "inputs": [
        {
          "internalType": "address",
          "name": "owner",
          "type": "address"
        }
      ],
      "name": "balanceOf",
      "outputs": [
        {
          "internalType": "uint256",
          "name": "",
          "type": "uint256"
        }
      ],
      "stateMutability": "view",
      "type": "function"
    },
    {
      "inputs": [
        {
          "internalType": "uint256",
          "name": "",
          "type": "uint256"
        }
      ],
      "name": "cards",
      "outputs": [
        {
          "internalType": "uint256",
          "name": "tokenId",
          "type": "uint256"
        },
        {
          "internalType": "address",
          "name": "mintedBy",
          "type": "address"
        },
        {
          "internalType": "string",
          "name": "metadataURI",
          "type": "string"
        },
        {
          "internalType": "bytes32",
          "name": "contentHash",
          "type": "bytes32"
        }
      ],
      "stateMutability": "view",
      "type": "function"
    },
    {
      "inputs": [
        {
          "internalType": "uint256",
          "name": "tokenId",
          "type": "uint256"
        }
      ],
      "name": "getApproved",
      "outputs": [
        {
          "internalType": "address",
          "name": "",
          "type": "address"
        }
      ],
      "stateMutability": "view",
      "type": "function"
    },
    {
      "inputs": [
        {
          "internalType": "address",
          "name": "owner",
          "type": "address"
        },
        {
          "internalType": "address",
          "name": "operator",
          "type": "address"
        }
      ],
      "name": "isApprovedForAll",
      "outputs": [
        {
          "internalType": "bool",
          "name": "",
          "type": "bool"
        }
      ],
      "stateMutability": "view",
      "type": "function"
    },
    {
      "inputs": [
        {
          "internalType": "address",
          "name": "to",
          "type": "address"
        },
        {
          "internalType": "string",
          "name": "uri",
          "type": "string"
        },
        {
          "internalType": "bytes32",
          "name": "hash",
          "type": "bytes32"
        }
      ],
      "name": "mintCard",
      "outputs": [
        {
          "internalType": "uint256",
          "name": "",
          "type": "uint256"
        }
      ],
      "stateMutability": "nonpayable",
      "type": "function"
    },
    {
      "inputs": [],
      "name": "name",
      "outputs": [
        {
          "internalType": "string",
          "name": "",
          "type": "string"
        }
      ],
      "stateMutability": "view",
      "type": "function"
    },
    {
      "inputs": [],
      "name": "owner",
      "outputs": [
        {
          "internalType": "address",
          "name": "",
          "type": "address"
        }
      ],
      "stateMutability": "view",
      "type": "function"
    },
    {
      "inputs": [
        {
          "internalType": "uint256",
          "name": "tokenId",
          "type": "uint256"
        }
      ],
      "name": "ownerOf",
      "outputs": [
        {
          "internalType": "address",
          "name": "",
          "type": "address"
        }
      ],
      "stateMutability": "view",
      "type": "function"
    },
    {
      "inputs": [],
      "name": "renounceOwnership",
      "outputs": [],
      "stateMutability": "nonpayable",
      "type": "function"
    },
    {
      "inputs": [
        {
          "internalType": "address",
          "name": "from",
          "type": "address"
        },
        {
          "internalType": "address",
          "name": "to",
          "type": "address"
        },
        {
          "internalType": "uint256",
          "name": "tokenId",
          "type": "uint256"
        }
      ],
      "name": "safeTransferFrom",
      "outputs": [],
      "stateMutability": "nonpayable",
      "type": "function"
    },
    {
      "inputs": [
        {
          "internalType": "address",
          "name": "from",
          "type": "address"
        },
        {
          "internalType": "address",
          "name": "to",
          "type": "address"
        },
        {
          "internalType": "uint256",
          "name": "tokenId",
          "type": "uint256"
        },
        {
          "internalType": "bytes",
          "name": "data",
          "type": "bytes"
        }
      ],
      "name": "safeTransferFrom",
      "outputs": [],
      "stateMutability": "nonpayable",
      "type": "function"
    },
    {
      "inputs": [
        {
          "internalType": "address",
          "name": "operator",
          "type": "address"
        },
        {
          "internalType": "bool",
          "name": "approved",
          "type": "bool"
        }
      ],
      "name": "setApprovalForAll",
      "outputs": [],
      "stateMutability": "nonpayable",
      "type": "function"
    },
    {
      "inputs": [
        {
          "internalType": "bytes4",
          "name": "interfaceId",
          "type": "bytes4"
        }
      ],
      "name": "supportsInterface",
      "outputs": [
        {
          "internalType": "bool",
          "name": "",
          "type": "bool"
        }
      ],
      "stateMutability": "view",
      "type": "function"
    },
    {
      "inputs": [],
      "name": "symbol",
      "outputs": [
        {
          "internalType": "string",
          "name": "",
          "type": "string"
        }
      ],
      "stateMutability": "view",
      "type": "function"
    },
    {
      "inputs": [
        {
          "internalType": "uint256",
          "name": "tokenId",
          "type": "uint256"
        }
      ],
      "name": "tokenURI",
      "outputs": [
        {
          "internalType": "string",
          "name": "",
          "type": "string"
        }
      ],
      "stateMutability": "view",
      "type": "function"
    },
    {
      "inputs": [
        {
          "internalType": "address",
          "name": "from",
          "type": "address"
        },
        {
          "internalType": "address",
          "name": "to",
          "type": "address"
        },
        {
          "internalType": "uint256",
          "name": "tokenId",
          "type": "uint256"
        }
      ],
      "name": "transferFrom",
      "outputs": [],
      "stateMutability": "nonpayable",
      "type": "function"
    },
    {
      "inputs": [
        {
          "internalType": "address",
          "name": "newOwner",
          "type": "address"
        }
      ],
      "name": "transferOwnership",
      "outputs": [],
      "stateMutability": "nonpayable",
      "type": "function"
    }
  ],
  "bytecode": "0x608060405234801562000010575f80fd5b50336040518060400160405280600a81526020016914da18591bddd0d85c9960b21b81525060405180604001604052806006815260200165534841444f5760d01b815250815f9081620000649190620001a5565b506001620000738282620001a5565b5050506001600160a01b038116620000a457604051631e4fbdf760e01b81525f600482015260240160405180910390fd5b620000af81620000b6565b5062000271565b600680546001600160a01b038381166001600160a01b0319831681179093556040519116919082907f8be0079c531659141344cd1fd0a4f28419497f9722a3daafe3b4186f6b6457e0905f90a35050565b634e487b7160e01b5f52604160045260245ffd5b600181811c908216806200013057607f821691505b6020821081036200014f57634e487b7160e01b5f52602260045260245ffd5b50919050565b601f821115620001a057805f5260205f20601f840160051c810160208510156200017c5750805b601f840160051c820191505b818110156200019d575f815560010162000188565b50505b505050565b81516001600160401b03811115620001c157620001c162000107565b620001d981620001d284546200011b565b8462000155565b602080601f8311600181146200020f575f8415620001f75750858301515b5f19600386901b1c1916600185901b17855562000269565b5f85815260208120601f198616915b828110156200023f578886015182559484019460019091019084016200021e565b50858210156200025d57878501515f19600388901b60f8161c191681555b505060018460011b0185555b505050505050565b611340806200027f5f395ff3fe608060405234801561000f575f80fd5b5060043610610111575f3560e01c80638da5cb5b1161009e578063b88d4fde1161006e578063b88d4fde14610243578063c87b56dd14610256578063d223dd5f14610269578063e985e9c51461027c578063f2fde38b1461028f575f80fd5b80638da5cb5b146101f45780638dc107681461020557806395d89b4114610228578063a22cb46514610230575f80fd5b806323b872dd116100e457806323b872dd1461019257806342842e0e146101a55780636352211e146101b857806370a08231146101cb578063715018a6146101ec575f80fd5b806301ffc9a71461011557806306fdde031461013d578063081812fc14610152578063095ea7b31461017d575b5f80fd5b610128610123366004610e25565b6102a2565b60405190151581526020015b60405180910390f35b6101456102f3565b6040516101349190610e8a565b610165610160366004610e9c565b610382565b6040516001600160a01b039091168152602001610134565b61019061018b366004610ece565b6103a9565b005b6101906101a0366004610ef6565b6103b8565b6101906101b3366004610ef6565b610446565b6101656101c6366004610e9c565b610465565b6101de6101d9366004610f2f565b61046f565b604051908152602001610134565b6101906104b4565b6006546001600160a01b0316610165565b610218610213366004610e9c565b6104c7565b6040516101349493929190610f48565b61014561057f565b61019061023e366004610f82565b61058e565b610190610251366004610fcf565b610599565b610145610264366004610e9c565b6105b1565b6101de6102773660046110a4565b610686565b61012861028a366004611126565b6107a5565b61019061029d366004610f2f565b6107d2565b5f6001600160e01b031982166380ac58cd60e01b14806102d257506001600160e01b03198216635b5e139f60e01b145b806102ed57506301ffc9a760e01b6001600160e01b03198316145b92915050565b60605f805461030190611157565b80601f016020809104026020016040519081016040528092919081815260200182805461032d90611157565b80156103785780601f1061034f57610100808354040283529160200191610378565b820191905f5260205f20905b81548152906001019060200180831161035b57829003601f168201915b5050505050905090565b5f61038c8261080f565b505f828152600460205260409020546001600160a01b03166102ed565b6103b4828233610847565b5050565b6001600160a01b0382166103e657604051633250574960e11b81525f60048201526024015b60405180910390fd5b5f6103f2838333610854565b9050836001600160a01b0316816001600160a01b031614610440576040516364283d7b60e01b81526001600160a01b03808616600483015260248201849052821660448201526064016103dd565b50505050565b61046083838360405180602001604052805f815250610599565b505050565b5f6102ed8261080f565b5f6001600160a01b038216610499576040516322718ad960e21b81525f60048201526024016103dd565b506001600160a01b03165f9081526003602052604090205490565b6104bc610946565b6104c55f610973565b565b60086020525f908152604090208054600182015460028301805492936001600160a01b03909216926104f890611157565b80601f016020809104026020016040519081016040528092919081815260200182805461052490611157565b801561056f5780601f106105465761010080835404028352916020019161056f565b820191905f5260205f20905b81548152906001019060200180831161055257829003601f168201915b5050505050908060030154905084565b60606001805461030190611157565b6103b43383836109c4565b6105a48484846103b8565b6104403385858585610a8b565b5f818152600260205260409020546060906001600160a01b03166105e85760405163dc114e6b60e01b815260040160405180910390fd5b5f828152600860205260409020600201805461060390611157565b80601f016020809104026020016040519081016040528092919081815260200182805461062f90611157565b801561067a5780601f106106515761010080835404028352916020019161067a565b820191905f5260205f20905b81548152906001019060200180831161065d57829003601f168201915b50505050509050919050565b5f61068f610946565b5f60075f815461069e9061118f565b91905081905590506040518060800160405280828152602001336001600160a01b0316815260200186868080601f0160208091040260200160405190810160405280939291908181526020018383808284375f92018290525093855250505060209182018690528381526008825260409081902083518155918301516001830180546001600160a01b0319166001600160a01b03909216919091179055820151600282019061074d90826111f7565b50606082015181600301559050506107658682610bb3565b604051838152339082907f7e83f32c8844a846a9afbaffdfb12558da09c821dea92393b1bb0a9bf2e279a09060200160405180910390a395945050505050565b6001600160a01b039182165f90815260056020908152604080832093909416825291909152205460ff1690565b6107da610946565b6001600160a01b03811661080357604051631e4fbdf760e01b81525f60048201526024016103dd565b61080c81610973565b50565b5f818152600260205260408120546001600160a01b0316806102ed57604051637e27328960e01b8152600481018490526024016103dd565b6104608383836001610bcc565b5f828152600260205260408120546001600160a01b039081169083161561088057610880818486610cd0565b6001600160a01b038116156108ba5761089b5f855f80610bcc565b6001600160a01b0381165f90815260036020526040902080545f190190555b6001600160a01b038516156108e8576001600160a01b0385165f908152600360205260409020805460010190555b5f8481526002602052604080822080546001600160a01b0319166001600160a01b0389811691821790925591518793918516917fddf252ad1be2c89b69c2b068fc378daa952ba7f163c4a11628f55a4df523b3ef91a4949350505050565b6006546001600160a01b031633146104c55760405163118cdaa760e01b81523360048201526024016103dd565b600680546001600160a01b038381166001600160a01b0319831681179093556040519116919082907f8be0079c531659141344cd1fd0a4f28419497f9722a3daafe3b4186f6b6457e0905f90a35050565b6001600160a01b0383166109ed5760405163a9fbf51f60e01b81525f60048201526024016103dd565b6001600160a01b038216610a1f57604051630b61174360e31b81526001600160a01b03831660048201526024016103dd565b6001600160a01b038381165f81815260056020908152604080832094871680845294825291829020805460ff191686151590811790915591519182527f17307eab39ab6107e8899845ad3d59bd9653f200f220920489ca2b5937696c31910160405180910390a3505050565b6001600160a01b0383163b15610bac57604051630a85bd0160e11b81526001600160a01b0384169063150b7a0290610acd9088908890879087906004016112b3565b6020604051808303815f875af1925050508015610b07575060408051601f3d908101601f19168201909252610b04918101906112ef565b60015b610b6e573d808015610b34576040519150601f19603f3d011682016040523d82523d5f602084013e610b39565b606091505b5080515f03610b6657604051633250574960e11b81526001600160a01b03851660048201526024016103dd565b805160208201fd5b6001600160e01b03198116630a85bd0160e11b14610baa57604051633250574960e11b81526001600160a01b03851660048201526024016103dd565b505b5050505050565b6103b4828260405180602001604052805f815250610d34565b8080610be057506001600160a01b03821615155b15610ca1575f610bef8461080f565b90506001600160a01b03831615801590610c1b5750826001600160a01b0316816001600160a01b031614155b8015610c2e5750610c2c81846107a5565b155b15610c575760405163a9fbf51f60e01b81526001600160a01b03841660048201526024016103dd565b8115610c9f5783856001600160a01b0316826001600160a01b03167f8c5be1e5ebec7d5bd14f71427d1e84f3dd0314c0f7b2291e5b200ac8c7c3b92560405160405180910390a45b505b50505f90815260046020526040902080546001600160a01b0319166001600160a01b0392909216919091179055565b610cdb838383610d4b565b610460576001600160a01b038316610d0957604051637e27328960e01b8152600481018290526024016103dd565b60405163177e802f60e01b81526001600160a01b0383166004820152602481018290526044016103dd565b610d3e8383610daf565b610460335f858585610a8b565b5f6001600160a01b03831615801590610da75750826001600160a01b0316846001600160a01b03161480610d845750610d8484846107a5565b80610da757505f828152600460205260409020546001600160a01b038481169116145b949350505050565b6001600160a01b038216610dd857604051633250574960e11b81525f60048201526024016103dd565b5f610de483835f610854565b90506001600160a01b03811615610460576040516339e3563760e11b81525f60048201526024016103dd565b6001600160e01b03198116811461080c575f80fd5b5f60208284031215610e35575f80fd5b8135610e4081610e10565b9392505050565b5f81518084525f5b81811015610e6b57602081850181015186830182015201610e4f565b505f602082860101526020601f19601f83011685010191505092915050565b602081525f610e406020830184610e47565b5f60208284031215610eac575f80fd5b5035919050565b80356001600160a01b0381168114610ec9575f80fd5b919050565b5f8060408385031215610edf575f80fd5b610ee883610eb3565b946020939093013593505050565b5f805f60608486031215610f08575f80fd5b610f1184610eb3565b9250610f1f60208501610eb3565b9150604084013590509250925092565b5f60208284031215610f3f575f80fd5b610e4082610eb3565b8481526001600160a01b03841660208201526080604082018190525f90610f7190830185610e47565b905082606083015295945050505050565b5f8060408385031215610f93575f80fd5b610f9c83610eb3565b915060208301358015158114610fb0575f80fd5b809150509250929050565b634e487b7160e01b5f52604160045260245ffd5b5f805f8060808587031215610fe2575f80fd5b610feb85610eb3565b9350610ff960208601610eb3565b925060408501359150606085013567ffffffffffffffff8082111561101c575f80fd5b818701915087601f83011261102f575f80fd5b81358181111561104157611041610fbb565b604051601f8201601f19908116603f0116810190838211818310171561106957611069610fbb565b816040528281528a6020848701011115611081575f80fd5b826020860160208301375f60208483010152809550505050505092959194509250565b5f805f80606085870312156110b7575f80fd5b6110c085610eb3565b9350602085013567ffffffffffffffff808211156110dc575f80fd5b818701915087601f8301126110ef575f80fd5b8135818111156110fd575f80fd5b88602082850101111561110e575f80fd5b95986020929092019750949560400135945092505050565b5f8060408385031215611137575f80fd5b61114083610eb3565b915061114e60208401610eb3565b90509250929050565b600181811c9082168061116b57607f821691505b60208210810361118957634e487b7160e01b5f52602260045260245ffd5b50919050565b5f600182016111ac57634e487b7160e01b5f52601160045260245ffd5b5060010190565b601f82111561046057805f5260205f20601f840160051c810160208510156111d85750805b601f840160051c820191505b81811015610bac575f81556001016111e4565b815167ffffffffffffffff81111561121157611211610fbb565b6112258161121f8454611157565b846111b3565b602080601f831160018114611258575f84156112415750858301515b5f19600386901b1c1916600185901b178555610baa565b5f85815260208120601f198616915b8281101561128657888601518255948401946001909101908401611267565b50858210156112a357878501515f19600388901b60f8161c191681555b5050505050600190811b01905550565b6001600160a01b03858116825284166020820152604081018390526080606082018190525f906112e590830184610e47565b9695505050505050565b5f602082840312156112ff575f80fd5b8151610e4081610e1056fea2646970667358221220a278882e5f24f888557d7f2b68ce0dae7670199f188e472a395e426b02425faf64736f6c63430008180033",
  "linkReferences": {},
  "deployedLinkReferences": {}
}