{
  "_format": "hh-sol-artifact-1",
  "contractName": "ShadowCardsMarketplace",
  "sourceName": "contracts/ShadowCardsMarketplace.sol",
  "abi": [
    {
      "inputs": [
        {
          "internalType": "address",
          "name": "_settlementContract",
          "type": "address"
        },
        {
          "internalType": "address",
          "name": "_paymentToken",
          "type": "address"
        }
      ],
      "stateMutability": "nonpayable",
      "type": "constructor"
    },
    {
      "inputs": [],
      "name": "InvalidAddress",
      "type": "error"
    },
    {
      "inputs": [],
      "name": "InvalidListing",
      "type": "error"
    },
    {
      "inputs": [],
      "name": "NotOwner",
      "type": "error"
    },
    {
      "inputs": [],
      "name": "OfferDoesNotExist",
      "type": "error"
    },
    {
      "anonymous": false,
      "inputs": [
        {
          "indexed": true,
          "internalType": "address",
          "name": "nftContract",
          "type": "address"
        },
        {
          "indexed": true,
          "internalType": "uint256",
          "name": "tokenId",
          "type": "uint256"
        }
      ],
      "name": "CardDelisted",
      "type": "event"
    },
    {
      "anonymous": false,
      "inputs": [
        {
          "indexed": true,
          "internalType": "address",
          "name": "nftContract",
          "type": "address"
        },
        {
          "indexed": true,
          "internalType": "uint256",
          "name": "tokenId",
          "type": "uint256"
        },
        {
          "indexed": true,
          "internalType": "address",
          "name": "seller",
          "type": "address"
        },
        {
          "indexed": false,
          "internalType": "bytes32",
          "name": "encryptedPriceHandle",
          "type": "bytes32"
        }
      ],
      "name": "CardListed",
      "type": "event"
    },
    {
      "anonymous": false,
      "inputs": [
        {
          "indexed": true,
          "internalType": "address",
          "name": "nftContract",
          "type": "address"
        },
        {
          "indexed": true,
          "internalType": "uint256",
          "name": "tokenId",
          "type": "uint256"
        },
        {
          "indexed": true,
          "internalType": "address",
          "name": "buyer",
          "type": "address"
        }
      ],
      "name": "OfferAccepted",
      "type": "event"
    },
    {
      "anonymous": false,
      "inputs": [
        {
          "indexed": true,
          "internalType": "address",
          "name": "nftContract",
          "type": "address"
        },
        {
          "indexed": true,
          "internalType": "uint256",
          "name": "tokenId",
          "type": "uint256"
        },
        {
          "indexed": true,
          "internalType": "address",
          "name": "buyer",
          "type": "address"
        },
        {
          "indexed": false,
          "internalType": "bytes32",
          "name": "encryptedAmountHandle",
          "type": "bytes32"
        }
      ],
      "name": "OfferSubmitted",
      "type": "event"
    },
    {
      "inputs": [
        {
          "internalType": "address",
          "name": "nftContract",
          "type": "address"
        },
        {
          "internalType": "uint256",
          "name": "tokenId",
          "type": "uint256"
        },
        {
          "internalType": "address",
          "name": "buyer",
          "type": "address"
        },
        {
          "internalType": "bytes",
          "name": "proof",
          "type": "bytes"
        }
      ],
      "name": "acceptOffer",
      "outputs": [],
      "stateMutability": "nonpayable",
      "type": "function"
    },
    {
      "inputs": [
        {
          "internalType": "address",
          "name": "nftContract",
          "type": "address"
        },
        {
          "internalType": "uint256",
          "name": "tokenId",
          "type": "uint256"
        }
      ],
      "name": "delistCard",
      "outputs": [],
      "stateMutability": "nonpayable",
      "type": "function"
    },
    {
      "inputs": [
        {
          "internalType": "address",
          "name": "nftContract",
          "type": "address"
        },
        {
          "internalType": "uint256",
          "name": "tokenId",
          "type": "uint256"
        },
        {
          "internalType": "bytes32",
          "name": "encryptedPriceHandle",
          "type": "bytes32"
        }
      ],
      "name": "listCard",
      "outputs": [],
      "stateMutability": "nonpayable",
      "type": "function"
    },
    {
      "inputs": [
        {
          "internalType": "address",
          "name": "",
          "type": "address"
        },
        {
          "internalType": "uint256",
          "name": "",
          "type": "uint256"
        }
      ],
      "name": "listings",
      "outputs": [
        {
          "internalType": "uint256",
          "name": "tokenId",
          "type": "uint256"
        },
        {
          "internalType": "address",
          "name": "seller",
          "type": "address"
        },
        {
          "internalType": "enum ShadowCardsMarketplace.ListingStatus",
          "name": "status",
          "type": "uint8"
        },
        {
          "internalType": "bytes32",
          "name": "encryptedPriceHandle",
          "type": "bytes32"
        },
        {
          "internalType": "uint64",
          "name": "createdAt",
          "type": "uint64"
        }
      ],
      "stateMutability": "view",
      "type": "function"
    },
    {
      "inputs": [
        {
          "internalType": "address",
          "name": "",
          "type": "address"
        },
        {
          "internalType": "uint256",
          "name": "",
          "type": "uint256"
        },
        {
          "internalType": "address",
          "name": "",
          "type": "address"
        }
      ],
      "name": "offers",
      "outputs": [
        {
          "internalType": "uint256",
          "name": "tokenId",
          "type": "uint256"
        },
        {
          "internalType": "address",
          "name": "buyer",
          "type": "address"
        },
        {
          "internalType": "bytes32",
          "name": "encryptedAmountHandle",
          "type": "bytes32"
        },
        {
          "internalType": "uint64",
          "name": "submittedAt",
          "type": "uint64"
        },
        {
          "internalType": "bool",
          "name": "withdrawn",
          "type": "bool"
        }
      ],
      "stateMutability": "view",
      "type": "function"
    },
    {
      "inputs": [],
      "name": "paymentToken",
      "outputs": [
        {
          "internalType": "address",
          "name": "",
          "type": "address"
        }
      ],
      "stateMutability": "view",
      "type": "function"
    },
    {
      "inputs": [],
      "name": "settlementContract",
      "outputs": [
        {
          "internalType": "contract ConfidentialSettlement",
          "name": "",
          "type": "address"
        }
      ],
      "stateMutability": "view",
      "type": "function"
    },
    {
      "inputs": [
        {
          "internalType": "address",
          "name": "nftContract",
          "type": "address"
        },
        {
          "internalType": "uint256",
          "name": "tokenId",
          "type": "uint256"
        },
        {
          "internalType": "bytes32",
          "name": "encryptedAmountHandle",
          "type": "bytes32"
        }
      ],
      "name": "submitOffer",
      "outputs": [],
      "stateMutability": "nonpayable",
      "type": "function"
    }
  ],
  "bytecode": "0x60c060405234801561000f575f80fd5b50604051610b80380380610b8083398101604081905261002e9161009b565b6001600160a01b038216158061004b57506001600160a01b038116155b156100695760405163e6c4247b60e01b815260040160405180910390fd5b6001600160a01b039182166080521660a0526100cc565b80516001600160a01b0381168114610096575f80fd5b919050565b5f80604083850312156100ac575f80fd5b6100b583610080565b91506100c360208401610080565b90509250929050565b60805160a051610a856100fb5f395f8181610117015261076501525f818161022f01526107340152610a855ff3fe608060405234801561000f575f80fd5b5060043610610084575f3560e01c8063aa2c01b011610058578063aa2c01b014610164578063c31860d514610177578063d3f494cc1461018a578063ea42418b1461022a575f80fd5b806207df301461008857806320f6d125146100fd5780633013ce291461011257806352828ed414610151575b5f80fd5b6100e3610096366004610823565b5f602081815292815260408082209093529081522080546001820154600283015460039093015491926001600160a01b03821692600160a01b90920460ff169167ffffffffffffffff1685565b6040516100f4959493929190610861565b60405180910390f35b61011061010b3660046108b9565b610251565b005b6101397f000000000000000000000000000000000000000000000000000000000000000081565b6040516001600160a01b0390911681526020016100f4565b61011061015f366004610823565b6103fd565b6101106101723660046108b9565b6104a2565b6101106101853660046108eb565b6105ed565b6101ee610198366004610982565b600160208181525f948552604080862082529385528385209052908352912080549181015460028201546003909201546001600160a01b03909116919067ffffffffffffffff811690600160401b900460ff1685565b604080519586526001600160a01b0390941660208601529284019190915267ffffffffffffffff1660608301521515608082015260a0016100f4565b6101397f000000000000000000000000000000000000000000000000000000000000000081565b6040516331a9108f60e11b81526004810183905233906001600160a01b03851690636352211e90602401602060405180830381865afa158015610296573d5f803e3d5ffd5b505050506040513d601f19601f820116820180604052508101906102ba91906109c1565b6001600160a01b0316146102e1576040516330cd747160e01b815260040160405180910390fd5b6040805160a08101825283815233602082015290810160018152602080820184905267ffffffffffffffff42166040928301526001600160a01b038087165f90815280835283812087825283528390208451815591840151600183018054919092166001600160a01b03198216811783559385015192936001600160a81b031990911617600160a01b83600481111561037c5761037c61084d565b0217905550606082015160028201556080909101516003909101805467ffffffffffffffff191667ffffffffffffffff909216919091179055604051818152339083906001600160a01b038616907fdc34fa82fe6fbb4adfec3f22d7b6ca10f9340cbd040e4b71fbd0fe79d25cf6bf906020015b60405180910390a4505050565b6001600160a01b038281165f90815260208181526040808320858452909152902060010154163314610442576040516330cd747160e01b815260040160405180910390fd5b6001600160a01b0382165f81815260208181526040808320858452909152808220600101805460ff60a01b1916600160a21b179055518392917f348d12804e428dafbee2baa63978f4a02c184c540152faa154bdfa4a45ebcee591a35050565b60016001600160a01b0384165f90815260208181526040808320868452909152902060010154600160a01b900460ff1660048111156104e3576104e361084d565b1461050157604051631ab4dc1760e31b815260040160405180910390fd5b6040805160a08101825283815233602080830182815283850186815267ffffffffffffffff428116606087019081525f608088018181526001600160a01b038d81168084526001808a528c85208f86528a528c85208b8652909952928b902099518a5595519689018054979096166001600160a01b0319909716969096179094559151600287015590516003909501805493511515600160401b0268ffffffffffffffffff1990941695909116949094179190911790925591518491907fcf80892168361771821c8eb5994d88cd64919e764e2914233af6fda3359e68c7906103f09086815260200190565b6001600160a01b038086165f81815260208181526040808320898452825280832093835260018083528184208a8552835281842089871685529092529091209082015491929091163314610654576040516330cd747160e01b815260040160405180910390fd5b600180830154600160a01b900460ff1660048111156106755761067561084d565b141580156106a3575060026001830154600160a01b900460ff1660048111156106a0576106a061084d565b14155b156106c157604051631ab4dc1760e31b815260040160405180910390fd5b60018101546001600160a01b031615806106e657506003810154600160401b900460ff165b15610704576040516374dbff7960e01b815260040160405180910390fd5b60018201805460ff60a01b1916600360a01b1790556002810154604051622f129760e31b81526001600160a01b037f0000000000000000000000000000000000000000000000000000000000000000169163017894b891610795918b918b917f0000000000000000000000000000000000000000000000000000000000000000918c9133918d908d906004016109e3565b5f604051808303815f87803b1580156107ac575f80fd5b505af11580156107be573d5f803e3d5ffd5b50505050846001600160a01b031686886001600160a01b03167f1911131efc06f8b35ef19454a244416c23f0cffd91e74ec4d1656a64ec363afe60405160405180910390a450505050505050565b6001600160a01b0381168114610820575f80fd5b50565b5f8060408385031215610834575f80fd5b823561083f8161080c565b946020939093013593505050565b634e487b7160e01b5f52602160045260245ffd5b8581526001600160a01b038516602082015260a081016005851061089357634e487b7160e01b5f52602160045260245ffd5b84604083015283606083015267ffffffffffffffff831660808301529695505050505050565b5f805f606084860312156108cb575f80fd5b83356108d68161080c565b95602085013595506040909401359392505050565b5f805f805f608086880312156108ff575f80fd5b853561090a8161080c565b94506020860135935060408601356109218161080c565b9250606086013567ffffffffffffffff8082111561093d575f80fd5b818801915088601f830112610950575f80fd5b81358181111561095e575f80fd5b89602082850101111561096f575f80fd5b9699959850939650602001949392505050565b5f805f60608486031215610994575f80fd5b833561099f8161080c565b92506020840135915060408401356109b68161080c565b809150509250925092565b5f602082840312156109d1575f80fd5b81516109dc8161080c565b9392505050565b6001600160a01b03898116825260208201899052878116604083015286811660608301528516608082015260a0810184905260e060c0820181905281018290525f6101008385828501375f838501820152601f909301601f19169091019091019897505050505050505056fea2646970667358221220277cee6071e99d92caafba9dc8b54687c22c8b314c3fd792ae1a55b41aa9f94164736f6c63430008180033",
  "linkReferences": {},
  "deployedLinkReferences": {}
}