{
  "_format": "hh-sol-artifact-1",
  "contractName": "ConfidentialSettlement",
  "sourceName": "contracts/ConfidentialSettlement.sol",
  "abi": [
    {
      "inputs": [],
      "name": "ConfidentialPaymentFailed",
      "type": "error"
    },
    {
      "anonymous": false,
      "inputs": [
        {
          "indexed": true,
          "internalType": "address",
          "name": "nftContract",
          "type": "address"
        },
        {
          "indexed": true,
          "internalType": "uint256",
          "name": "tokenId",
          "type": "uint256"
        },
        {
          "indexed": true,
          "internalType": "address",
          "name": "buyer",
          "type": "address"
        },
        {
          "indexed": false,
          "internalType": "address",
          "name": "seller",
          "type": "address"
        }
      ],
      "name": "TradeSettled",
      "type": "event"
    },
    {
      "inputs": [
        {
          "internalType": "address",
          "name": "nftContract",
          "type": "address"
        },
        {
          "internalType": "uint256",
          "name": "tokenId",
          "type": "uint256"
        },
        {
          "internalType": "address",
          "name": "paymentToken",
          "type": "address"
        },
        {
          "internalType": "address",
          "name": "buyer",
          "type": "address"
        },
        {
          "internalType": "address",
          "name": "seller",
          "type": "address"
        },
        {
          "internalType": "bytes32",
          "name": "encryptedAmountHandle",
          "type": "bytes32"
        },
        {
          "internalType": "bytes",
          "name": "proof",
          "type": "bytes"
        }
      ],
      "name": "executeSettlement",
      "outputs": [],
      "stateMutability": "nonpayable",
      "type": "function"
    }
  ],
  "bytecode": "0x608060405234801561000f575f80fd5b506103168061001d5f395ff3fe608060405234801561000f575f80fd5b5060043610610029575f3560e01c8063017894b81461002d575b5f80fd5b61004061003b3660046101a9565b610042565b005b60405163e064b9bb60e01b81525f906001600160a01b0388169063e064b9bb906100789089908990899089908990600401610268565b6020604051808303815f875af1158015610094573d5f803e3d5ffd5b505050506040513d601f19601f820116820180604052508101906100b891906102ba565b9050806100d857604051630c5f40ef60e41b815260040160405180910390fd5b6040516323b872dd60e01b81526001600160a01b0386811660048301528781166024830152604482018a90528a16906323b872dd906064015f604051808303815f87803b158015610127575f80fd5b505af1158015610139573d5f803e3d5ffd5b50506040516001600160a01b038881168252808a1693508b92508c16907fbe2cd0b5e696fb05809c8f15c34c6b43eaa567b9c10ca8ed74fe9d33d37387a59060200160405180910390a4505050505050505050565b80356001600160a01b03811681146101a4575f80fd5b919050565b5f805f805f805f8060e0898b0312156101c0575f80fd5b6101c98961018e565b9750602089013596506101de60408a0161018e565b95506101ec60608a0161018e565b94506101fa60808a0161018e565b935060a0890135925060c089013567ffffffffffffffff8082111561021d575f80fd5b818b0191508b601f830112610230575f80fd5b81358181111561023e575f80fd5b8c602082850101111561024f575f80fd5b6020830194508093505050509295985092959890939650565b6001600160a01b038681168252851660208201526040810184905260806060820181905281018290525f828460a08401375f60a0848401015260a0601f19601f85011683010190509695505050505050565b5f602082840312156102ca575f80fd5b815180151581146102d9575f80fd5b939250505056fea264697066735822122099f07b41b60bbb484f8a44aaf2a553f9072a7904dafbd46d18b04b2c38c41f0664736f6c63430008180033",
  "linkReferences": {},
  "deployedLinkReferences": {}
}